{
  "contractName": "BasicToken",
  "abi": [
    {
      "anonymous": false,
      "inputs": [
        {
          "indexed": true,
          "name": "from",
          "type": "address"
        },
        {
          "indexed": true,
          "name": "to",
          "type": "address"
        },
        {
          "indexed": false,
          "name": "value",
          "type": "uint256"
        }
      ],
      "name": "Transfer",
      "type": "event"
    },
    {
      "constant": true,
      "inputs": [],
      "name": "totalSupply",
      "outputs": [
        {
          "name": "",
          "type": "uint256"
        }
      ],
      "payable": false,
      "stateMutability": "view",
      "type": "function"
    },
    {
      "constant": false,
      "inputs": [
        {
          "name": "_to",
          "type": "address"
        },
        {
          "name": "_value",
          "type": "uint256"
        }
      ],
      "name": "transfer",
      "outputs": [
        {
          "name": "",
          "type": "bool"
        }
      ],
      "payable": false,
      "stateMutability": "nonpayable",
      "type": "function"
    },
    {
      "constant": true,
      "inputs": [
        {
          "name": "_owner",
          "type": "address"
        }
      ],
      "name": "balanceOf",
      "outputs": [
        {
          "name": "",
          "type": "uint256"
        }
      ],
      "payable": false,
      "stateMutability": "view",
      "type": "function"
    }
  ],
  "bytecode": "0x608060405234801561001057600080fd5b50610415806100206000396000f300608060405260043610610057576000357c0100000000000000000000000000000000000000000000000000000000900463ffffffff16806318160ddd1461005c57806370a0823114610087578063a9059cbb146100de575b600080fd5b34801561006857600080fd5b50610071610143565b6040518082815260200191505060405180910390f35b34801561009357600080fd5b506100c8600480360381019080803573ffffffffffffffffffffffffffffffffffffffff16906020019092919050505061014d565b6040518082815260200191505060405180910390f35b3480156100ea57600080fd5b50610129600480360381019080803573ffffffffffffffffffffffffffffffffffffffff16906020019092919080359060200190929190505050610195565b604051808215151515815260200191505060405180910390f35b6000600154905090565b60008060008373ffffffffffffffffffffffffffffffffffffffff1673ffffffffffffffffffffffffffffffffffffffff168152602001908152602001600020549050919050565b60008073ffffffffffffffffffffffffffffffffffffffff168373ffffffffffffffffffffffffffffffffffffffff16141515156101d257600080fd5b6000803373ffffffffffffffffffffffffffffffffffffffff1673ffffffffffffffffffffffffffffffffffffffff16815260200190815260200160002054821115151561021f57600080fd5b610270826000803373ffffffffffffffffffffffffffffffffffffffff1673ffffffffffffffffffffffffffffffffffffffff168152602001908152602001600020546103b490919063ffffffff16565b6000803373ffffffffffffffffffffffffffffffffffffffff1673ffffffffffffffffffffffffffffffffffffffff16815260200190815260200160002081905550610303826000808673ffffffffffffffffffffffffffffffffffffffff1673ffffffffffffffffffffffffffffffffffffffff168152602001908152602001600020546103cd90919063ffffffff16565b6000808573ffffffffffffffffffffffffffffffffffffffff1673ffffffffffffffffffffffffffffffffffffffff168152602001908152602001600020819055508273ffffffffffffffffffffffffffffffffffffffff163373ffffffffffffffffffffffffffffffffffffffff167fddf252ad1be2c89b69c2b068fc378daa952ba7f163c4a11628f55a4df523b3ef846040518082815260200191505060405180910390a36001905092915050565b60008282111515156103c257fe5b818303905092915050565b600081830190508281101515156103e057fe5b809050929150505600a165627a7a72305820181de4703afd36b2589125456938b834f24d840e20b8bad1f7167e64128092720029",
  "source": "  pragma solidity ^0.4.24;\n\n  /**\n   * @title ERC20Basic\n   * @dev Simpler version of ERC20 interface\n   * @dev see https://github.com/ethereum/EIPs/issues/179\n   */\n  contract ERC20Basic {\n    function totalSupply() public view returns (uint256);\n    function balanceOf(address who) public view returns (uint256);\n    function transfer(address to, uint256 value) public returns (bool);\n    event Transfer(address indexed from, address indexed to, uint256 value);\n  }\n\n  /**\n   * @title ERC20 interface\n   * @dev see https://github.com/ethereum/EIPs/issues/20\n   */\n  contract ERC20 is ERC20Basic {\n    function allowance(address owner, address spender) public view returns (uint256);\n    function transferFrom(address from, address to, uint256 value) public returns (bool);\n    function approve(address spender, uint256 value) public returns (bool);\n    event Approval(address indexed owner, address indexed spender, uint256 value);\n  }\n\n  /**\n   * @title SafeMath\n   * @dev Math operations with safety checks that throw on error\n   * @notice https://github.com/OpenZeppelin/zeppelin-solidity/blob/master/contracts/math/SafeMath.sol\n   */\n  library SafeMath {\n  \t/**\n  \t * SafeMath mul function\n  \t * @dev function for safe multiply, throws on overflow.\n  \t **/\n  \tfunction mul(uint256 a, uint256 b) internal pure returns (uint256) {\n  \t\tuint256 c = a * b;\n  \t\tassert(a == 0 || c / a == b);\n  \t\treturn c;\n  \t}\n\n  \t/**\n  \t * SafeMath div funciotn\n  \t * @dev function for safe devide, throws on overflow.\n  \t **/\n  \tfunction div(uint256 a, uint256 b) internal pure returns (uint256) {\n  \t\tuint256 c = a / b;\n  \t\treturn c;\n  \t}\n\n  \t/**\n  \t * SafeMath sub function\n  \t * @dev function for safe subtraction, throws on overflow.\n  \t **/\n  \tfunction sub(uint256 a, uint256 b) internal pure returns (uint256) {\n  \t\tassert(b <= a);\n  \t\treturn a - b;\n  \t}\n\n  \t/**\n  \t * SafeMath add function\n  \t * @dev Adds two numbers, throws on overflow.\n  \t */\n  \tfunction add(uint256 a, uint256 b) internal pure returns (uint256 c) {\n  \t\tc = a + b;\n  \t\tassert(c >= a);\n  \t\treturn c;\n  \t}\n  }\n\n  /**\n   * @title Basic token\n   * @dev Basic version of StandardToken, with no allowances.\n   */\n  contract BasicToken is ERC20Basic {\n    using SafeMath for uint256;\n\n    mapping(address => uint256) balances;\n\n    uint256 totalSupply_;\n\n    /**\n    * @dev total number of tokens in existence\n    */\n    function totalSupply() public view returns (uint256) {\n      return totalSupply_;\n    }\n\n    /**\n    * @dev transfer token for a specified address\n    * @param _to The address to transfer to.\n    * @param _value The amount to be transferred.\n    */\n    function transfer(address _to, uint256 _value) public returns (bool) {\n      require(_to != address(0));\n      require(_value <= balances[msg.sender]);\n\n      balances[msg.sender] = balances[msg.sender].sub(_value);\n      balances[_to] = balances[_to].add(_value);\n      emit Transfer(msg.sender, _to, _value);\n      return true;\n    }\n\n    /**\n    * @dev Gets the balance of the specified address.\n    * @param _owner The address to query the the balance of.\n    * @return An uint256 representing the amount owned by the passed address.\n    */\n    function balanceOf(address _owner) public view returns (uint256) {\n      return balances[_owner];\n    }\n\n  }\n\n  /**\n   * @title Standard ERC20 token\n   *\n   * @dev Implementation of the basic standard token.\n   * @dev https://github.com/ethereum/EIPs/issues/20\n   * @dev Based on code by FirstBlood: https://github.com/Firstbloodio/token/blob/master/smart_contract/FirstBloodToken.sol\n   */\n  contract StandardToken is ERC20, BasicToken {\n\n    mapping (address => mapping (address => uint256)) internal allowed;\n\n    /**\n     * @dev Transfer tokens from one address to another\n     * @param _from address The address which you want to send tokens from\n     * @param _to address The address which you want to transfer to\n     * @param _value uint256 the amount of tokens to be transferred\n     */\n    function transferFrom(address _from, address _to, uint256 _value) public returns (bool) {\n      require(_to != address(0));\n      require(_value <= balances[_from]);\n      require(_value <= allowed[_from][msg.sender]);\n\n      balances[_from] = balances[_from].sub(_value);\n      balances[_to] = balances[_to].add(_value);\n      allowed[_from][msg.sender] = allowed[_from][msg.sender].sub(_value);\n      emit Transfer(_from, _to, _value);\n      return true;\n    }\n\n    /**\n     * @dev Approve the passed address to spend the specified amount of tokens on behalf of msg.sender.\n     *\n     * Beware that changing an allowance with this method brings the risk that someone may use both the old\n     * and the new allowance by unfortunate transaction ordering. One possible solution to mitigate this\n     * race condition is to first reduce the spender's allowance to 0 and set the desired value afterwards:\n     * https://github.com/ethereum/EIPs/issues/20#issuecomment-263524729\n     * @param _spender The address which will spend the funds.\n     * @param _value The amount of tokens to be spent.\n     */\n    function approve(address _spender, uint256 _value) public returns (bool) {\n      allowed[msg.sender][_spender] = _value;\n      emit Approval(msg.sender, _spender, _value);\n      return true;\n    }\n\n    /**\n     * @dev Function to check the amount of tokens that an owner allowed to a spender.\n     * @param _owner address The address which owns the funds.\n     * @param _spender address The address which will spend the funds.\n     * @return A uint256 specifying the amount of tokens still available for the spender.\n     */\n    function allowance(address _owner, address _spender) public view returns (uint256) {\n      return allowed[_owner][_spender];\n    }\n\n    /**\n     * @dev Increase the amount of tokens that an owner allowed to a spender.\n     *\n     * approve should be called when allowed[_spender] == 0. To increment\n     * allowed value is better to use this function to avoid 2 calls (and wait until\n     * the first transaction is mined)\n     * From MonolithDAO Token.sol\n     * @param _spender The address which will spend the funds.\n     * @param _addedValue The amount of tokens to increase the allowance by.\n     */\n    function increaseApproval(address _spender, uint _addedValue) public returns (bool) {\n      allowed[msg.sender][_spender] = (\n        allowed[msg.sender][_spender].add(_addedValue));\n      emit Approval(msg.sender, _spender, allowed[msg.sender][_spender]);\n      return true;\n    }\n\n    /**\n     * @dev Decrease the amount of tokens that an owner allowed to a spender.\n     *\n     * approve should be called when allowed[_spender] == 0. To decrement\n     * allowed value is better to use this function to avoid 2 calls (and wait until\n     * the first transaction is mined)\n     * From MonolithDAO Token.sol\n     * @param _spender The address which will spend the funds.\n     * @param _subtractedValue The amount of tokens to decrease the allowance by.\n     */\n    function decreaseApproval(address _spender, uint _subtractedValue) public returns (bool) {\n      uint oldValue = allowed[msg.sender][_spender];\n\n      if (_subtractedValue > oldValue) {\n        allowed[msg.sender][_spender] = 0;\n      } else {\n        allowed[msg.sender][_spender] = oldValue.sub(_subtractedValue);\n      }\n\n      emit Approval(msg.sender, _spender, allowed[msg.sender][_spender]);\n      return true;\n    }\n\n  }\n\n  /**\n   * @title Ownable\n   * @dev The Ownable contract has an owner address, and provides basic authorization control\n   * functions, this simplifies the implementation of \"user permissions\".\n   */\n  contract Ownable {\n    address public owner;\n\n\n    event OwnershipRenounced(address indexed previousOwner);\n    event OwnershipTransferred(address indexed previousOwner, address indexed newOwner);\n\n\n    /**\n     * @dev The Ownable constructor sets the original `owner` of the contract to the sender\n     * account.\n     */\n    constructor() public {\n      owner = msg.sender;\n    }\n\n    /**\n     * @dev Throws if called by any account other than the owner.\n     */\n    modifier onlyOwner() {\n      require(msg.sender == owner);\n      _;\n    }\n\n    /**\n     * @dev Allows the current owner to transfer control of the contract to a newOwner.\n     * @param newOwner The address to transfer ownership to.\n     */\n    function transferOwnership(address newOwner) public onlyOwner {\n      require(newOwner != address(0));\n      emit OwnershipTransferred(owner, newOwner);\n      owner = newOwner;\n    }\n\n    /**\n     * @dev Allows the current owner to relinquish control of the contract.\n     */\n    function renounceOwnership() public onlyOwner {\n      emit OwnershipRenounced(owner);\n      owner = address(0);\n    }\n  }\n\n\n\n  /**\n   * @title Pausable token\n   * @dev StandardToken modified with pausable transfers.\n   **/\n  contract CoconToken is StandardToken, Ownable {\n      string public name;// = \"Cocon Token\";\n      string public symbol;// = \"COCO\";\n      uint256 public decimals;// = 8;\n      uint256 public initial_supply;// = 100000000000;// 1000 억\n      uint lastActionId = 0;\n      bool public isPauseOn = false;\n\n      modifier ifNotPaused(){\n        require(!isPauseOn || msg.sender == owner);\n        _;\n      }\n\n      function _doPause(uint act) public{\n        lastActionId = act;\n        require(msg.sender == owner);\n        isPauseOn = true;\n      }\n\n      function _doUnpause(uint act) public{\n        lastActionId = act;\n        require(msg.sender == owner);\n        isPauseOn = false;\n      }\n\n      /**\n       * @dev Transfer tokens when not paused\n       **/\n      function transfer(address _to, uint256 _value) public ifNotPaused returns (bool) {\n          return super.transfer(_to, _value);\n      }\n\n      /**\n       * @dev transferFrom function to tansfer tokens when token is not paused\n       **/\n      function transferFrom(address _from, address _to, uint256 _value) public ifNotPaused returns (bool) {\n          return super.transferFrom(_from, _to, _value);\n      }\n\n      /**\n       * @dev approve spender when not paused\n       **/\n      function approve(address _spender, uint256 _value) public ifNotPaused returns (bool) {\n          return super.approve(_spender, _value);\n      }\n\n      /**\n       * @dev increaseApproval of spender when not paused\n       **/\n      function increaseApproval(address _spender, uint _addedValue) public ifNotPaused returns (bool success) {\n          return super.increaseApproval(_spender, _addedValue);\n      }\n\n      /**\n       * @dev decreaseApproval of spender when not paused\n       **/\n      function decreaseApproval(address _spender, uint _subtractedValue) public ifNotPaused returns (bool success) {\n          return super.decreaseApproval(_spender, _subtractedValue);\n      }\n\n\n      // Mint more tokens\n      function _mint(uint mint_amt) public onlyOwner{\n          totalSupply_ = totalSupply_.add(mint_amt);\n          balances[owner] = balances[owner].add(mint_amt);\n      }\n\n      /**\n     * Pausable Token Constructor\n     * @dev Create and issue tokens to msg.sender.\n     */\n    constructor() public {\n      name = \"Cocon Token\";\n      symbol = \"COCO\";\n      decimals = 8;\n      initial_supply = 10000000000000000000;\n\n      totalSupply_ = initial_supply;\n      balances[msg.sender] = initial_supply;\n    }\n  }\n\n",
  "sourcePath": "/home/mman/test/projects/coco/contracts/CoconToken.sol",
  "compiler": {
    "name": "solc",
    "version": "0.4.24+commit.e67f0147.Emscripten.clang"
  },
  "schemaVersion": "3.0.0",
  "updatedAt": "2018-12-24T06:30:24.553Z",
  "devdoc": {
    "methods": {
      "balanceOf(address)": {
        "details": "Gets the balance of the specified address.",
        "params": {
          "_owner": "The address to query the the balance of."
        },
        "return": "An uint256 representing the amount owned by the passed address."
      },
      "totalSupply()": {
        "details": "total number of tokens in existence"
      },
      "transfer(address,uint256)": {
        "details": "transfer token for a specified address",
        "params": {
          "_to": "The address to transfer to.",
          "_value": "The amount to be transferred."
        }
      }
    },
    "title": "Basic token"
  },
  "userdoc": {
    "methods": {}
  }
}