{
  "contractName": "CoconSale",
  "abi": [
    {
      "constant": true,
      "inputs": [],
      "name": "dynamicLocktime",
      "outputs": [
        {
          "name": "",
          "type": "uint256"
        }
      ],
      "payable": false,
      "stateMutability": "view",
      "type": "function",
      "signature": "0x0f1a4316"
    },
    {
      "constant": true,
      "inputs": [],
      "name": "beneficiary",
      "outputs": [
        {
          "name": "",
          "type": "address"
        }
      ],
      "payable": false,
      "stateMutability": "view",
      "type": "function",
      "signature": "0x38af3eed"
    },
    {
      "constant": true,
      "inputs": [],
      "name": "exchangeRate",
      "outputs": [
        {
          "name": "",
          "type": "uint256"
        }
      ],
      "payable": false,
      "stateMutability": "view",
      "type": "function",
      "signature": "0x3ba0b9a9"
    },
    {
      "constant": true,
      "inputs": [],
      "name": "tokenAvailable",
      "outputs": [
        {
          "name": "",
          "type": "uint256"
        }
      ],
      "payable": false,
      "stateMutability": "view",
      "type": "function",
      "signature": "0x5ebdd159"
    },
    {
      "constant": true,
      "inputs": [],
      "name": "tokenReward",
      "outputs": [
        {
          "name": "",
          "type": "address"
        }
      ],
      "payable": false,
      "stateMutability": "view",
      "type": "function",
      "signature": "0x6e66f6e9"
    },
    {
      "constant": true,
      "inputs": [
        {
          "name": "",
          "type": "address"
        }
      ],
      "name": "balanceOf",
      "outputs": [
        {
          "name": "",
          "type": "uint256"
        }
      ],
      "payable": false,
      "stateMutability": "view",
      "type": "function",
      "signature": "0x70a08231"
    },
    {
      "constant": true,
      "inputs": [],
      "name": "lockType",
      "outputs": [
        {
          "name": "",
          "type": "uint256"
        }
      ],
      "payable": false,
      "stateMutability": "view",
      "type": "function",
      "signature": "0x765d4897"
    },
    {
      "constant": true,
      "inputs": [],
      "name": "amountRaised",
      "outputs": [
        {
          "name": "",
          "type": "uint256"
        }
      ],
      "payable": false,
      "stateMutability": "view",
      "type": "function",
      "signature": "0x7b3e5e7b"
    },
    {
      "constant": true,
      "inputs": [],
      "name": "owner",
      "outputs": [
        {
          "name": "",
          "type": "address"
        }
      ],
      "payable": false,
      "stateMutability": "view",
      "type": "function",
      "signature": "0x8da5cb5b"
    },
    {
      "constant": true,
      "inputs": [],
      "name": "globalLocktime",
      "outputs": [
        {
          "name": "",
          "type": "uint256"
        }
      ],
      "payable": false,
      "stateMutability": "view",
      "type": "function",
      "signature": "0x93c08b96"
    },
    {
      "constant": true,
      "inputs": [],
      "name": "price",
      "outputs": [
        {
          "name": "",
          "type": "uint256"
        }
      ],
      "payable": false,
      "stateMutability": "view",
      "type": "function",
      "signature": "0xa035b1fe"
    },
    {
      "constant": true,
      "inputs": [],
      "name": "charged",
      "outputs": [
        {
          "name": "",
          "type": "bool"
        }
      ],
      "payable": false,
      "stateMutability": "view",
      "type": "function",
      "signature": "0xcf3bd87b"
    },
    {
      "constant": true,
      "inputs": [
        {
          "name": "",
          "type": "uint256"
        }
      ],
      "name": "founders",
      "outputs": [
        {
          "name": "",
          "type": "address"
        }
      ],
      "payable": false,
      "stateMutability": "view",
      "type": "function",
      "signature": "0xd8e75f62"
    },
    {
      "constant": true,
      "inputs": [
        {
          "name": "",
          "type": "address"
        }
      ],
      "name": "tokenBalanceOf",
      "outputs": [
        {
          "name": "",
          "type": "uint256"
        }
      ],
      "payable": false,
      "stateMutability": "view",
      "type": "function",
      "signature": "0xe42c08f2"
    },
    {
      "constant": true,
      "inputs": [
        {
          "name": "",
          "type": "address"
        }
      ],
      "name": "timelocksOf",
      "outputs": [
        {
          "name": "",
          "type": "uint256"
        }
      ],
      "payable": false,
      "stateMutability": "view",
      "type": "function",
      "signature": "0xfc7a60bb"
    },
    {
      "inputs": [
        {
          "name": "_beneficiary",
          "type": "address"
        },
        {
          "name": "_addressOfTokenUsedAsReward",
          "type": "address"
        },
        {
          "name": "_globalLocktime",
          "type": "uint256"
        },
        {
          "name": "_dynamicLocktime",
          "type": "uint256"
        },
        {
          "name": "_exchangeRate",
          "type": "uint256"
        }
      ],
      "payable": false,
      "stateMutability": "nonpayable",
      "type": "constructor",
      "signature": "constructor"
    },
    {
      "payable": true,
      "stateMutability": "payable",
      "type": "fallback"
    },
    {
      "anonymous": false,
      "inputs": [
        {
          "indexed": false,
          "name": "backer",
          "type": "address"
        },
        {
          "indexed": false,
          "name": "amount",
          "type": "uint256"
        },
        {
          "indexed": false,
          "name": "exchangeRate",
          "type": "uint256"
        },
        {
          "indexed": false,
          "name": "token",
          "type": "uint256"
        },
        {
          "indexed": false,
          "name": "time",
          "type": "uint256"
        },
        {
          "indexed": false,
          "name": "timelock",
          "type": "uint256"
        },
        {
          "indexed": false,
          "name": "isContribution",
          "type": "bool"
        }
      ],
      "name": "FundTransfer",
      "type": "event",
      "signature": "0x4c26125b41cd5484e373d26a702816e78e8f75ae1bb9d83a0ee16a78a8e8e0e9"
    },
    {
      "anonymous": false,
      "inputs": [
        {
          "indexed": false,
          "name": "isCharged",
          "type": "bool"
        }
      ],
      "name": "IsCharged",
      "type": "event",
      "signature": "0x983bc0cfa798c8bebdb8f3827031ff57f173d68da4449941840ba305306c5c1d"
    },
    {
      "anonymous": false,
      "inputs": [
        {
          "indexed": false,
          "name": "founder",
          "type": "address"
        },
        {
          "indexed": false,
          "name": "tokens",
          "type": "uint256"
        }
      ],
      "name": "TokensClaimed",
      "type": "event",
      "signature": "0x896e034966eaaf1adc54acc0f257056febbd300c9e47182cf761982cf1f5e430"
    },
    {
      "anonymous": false,
      "inputs": [],
      "name": "TransferOwnership",
      "type": "event",
      "signature": "0x47ebf46624611c52aa026572cea28d0fe944ec8e12a6aaaf9a34159718ff0710"
    },
    {
      "anonymous": false,
      "inputs": [
        {
          "indexed": false,
          "name": "oldExchangeRate",
          "type": "uint256"
        },
        {
          "indexed": false,
          "name": "newExchangeRate",
          "type": "uint256"
        }
      ],
      "name": "ChangeExchangeRate",
      "type": "event",
      "signature": "0x8127cc1e4f66277641a2c7c1a457e5f3625f5f6bdc873c21b78494973f4018ec"
    },
    {
      "anonymous": false,
      "inputs": [
        {
          "indexed": false,
          "name": "timelockUntil",
          "type": "uint256"
        }
      ],
      "name": "NewGlobalLocktime",
      "type": "event",
      "signature": "0x57f8f7c54e908b3f230e4302fce4a19096f7c9f6ff30f6871e40f514371199a4"
    },
    {
      "anonymous": false,
      "inputs": [
        {
          "indexed": false,
          "name": "timelockUntil",
          "type": "uint256"
        }
      ],
      "name": "NewDynamicLocktime",
      "type": "event",
      "signature": "0xe5ddd5b0c0a0b1c781be1c114fda5f2bda09b0e7a562839b8ec631278999b78a"
    },
    {
      "constant": false,
      "inputs": [
        {
          "name": "act",
          "type": "uint256"
        }
      ],
      "name": "doChargeCrowdsale",
      "outputs": [],
      "payable": false,
      "stateMutability": "nonpayable",
      "type": "function",
      "signature": "0x8e69911f"
    },
    {
      "constant": false,
      "inputs": [
        {
          "name": "adr",
          "type": "address"
        }
      ],
      "name": "claimTokens",
      "outputs": [],
      "payable": false,
      "stateMutability": "nonpayable",
      "type": "function",
      "signature": "0xdf8de3e7"
    },
    {
      "constant": false,
      "inputs": [
        {
          "name": "act",
          "type": "uint256"
        }
      ],
      "name": "transferRaisedFunds",
      "outputs": [],
      "payable": false,
      "stateMutability": "nonpayable",
      "type": "function",
      "signature": "0xdcd99159"
    },
    {
      "constant": false,
      "inputs": [
        {
          "name": "newOwner",
          "type": "address"
        }
      ],
      "name": "transferOwnership",
      "outputs": [],
      "payable": false,
      "stateMutability": "nonpayable",
      "type": "function",
      "signature": "0xf2fde38b"
    },
    {
      "constant": false,
      "inputs": [
        {
          "name": "newExchangeRate",
          "type": "uint256"
        }
      ],
      "name": "setExchangeRate",
      "outputs": [],
      "payable": false,
      "stateMutability": "nonpayable",
      "type": "function",
      "signature": "0xdb068e0e"
    },
    {
      "constant": false,
      "inputs": [
        {
          "name": "mins",
          "type": "uint256"
        }
      ],
      "name": "setGlobalLocktime",
      "outputs": [],
      "payable": false,
      "stateMutability": "nonpayable",
      "type": "function",
      "signature": "0x303b52c8"
    },
    {
      "constant": false,
      "inputs": [
        {
          "name": "mins",
          "type": "uint256"
        }
      ],
      "name": "setDynamicLocktime",
      "outputs": [],
      "payable": false,
      "stateMutability": "nonpayable",
      "type": "function",
      "signature": "0xf6dc2024"
    },
    {
      "constant": false,
      "inputs": [
        {
          "name": "newType",
          "type": "uint256"
        }
      ],
      "name": "setLockType",
      "outputs": [],
      "payable": false,
      "stateMutability": "nonpayable",
      "type": "function",
      "signature": "0xdc8c44d0"
    },
    {
      "constant": false,
      "inputs": [
        {
          "name": "adr",
          "type": "address"
        }
      ],
      "name": "unlockTokensFor",
      "outputs": [],
      "payable": false,
      "stateMutability": "nonpayable",
      "type": "function",
      "signature": "0xfbb789fa"
    },
    {
      "constant": false,
      "inputs": [
        {
          "name": "adr",
          "type": "address"
        }
      ],
      "name": "resetLockFor",
      "outputs": [],
      "payable": false,
      "stateMutability": "nonpayable",
      "type": "function",
      "signature": "0xac4ced0e"
    },
    {
      "constant": false,
      "inputs": [
        {
          "name": "act",
          "type": "uint256"
        }
      ],
      "name": "getLeftOver",
      "outputs": [],
      "payable": false,
      "stateMutability": "nonpayable",
      "type": "function",
      "signature": "0x6b1557be"
    }
  ],
  "bytecode": "0x608060405260006005556000600d556000600e60006101000a81548160ff0219169083151502179055506000600f5534801561003a57600080fd5b5060405160a080611ea38339810180604052810190808051906020019092919080519060200190929190805190602001909291908051906020019092919080519060200190929190505050846000806101000a81548173ffffffffffffffffffffffffffffffffffffffff021916908373ffffffffffffffffffffffffffffffffffffffff1602179055508160038190555083600660006101000a81548173ffffffffffffffffffffffffffffffffffffffff021916908373ffffffffffffffffffffffffffffffffffffffff160217905550603c830242016004819055508060078190555033600c60006101000a81548173ffffffffffffffffffffffffffffffffffffffff021916908373ffffffffffffffffffffffffffffffffffffffff1602179055505050505050611d2e806101756000396000f300608060405260043610610154576000357c0100000000000000000000000000000000000000000000000000000000900463ffffffff1680630f1a43161461044b578063303b52c81461047657806338af3eed146104a35780633ba0b9a9146104fa5780635ebdd159146105255780636b1557be146105505780636e66f6e91461057d57806370a08231146105d4578063765d48971461062b5780637b3e5e7b146106565780638da5cb5b146106815780638e69911f146106d857806393c08b9614610705578063a035b1fe14610730578063ac4ced0e1461075b578063cf3bd87b1461079e578063d8e75f62146107cd578063db068e0e1461083a578063dc8c44d014610867578063dcd9915914610894578063df8de3e7146108c1578063e42c08f214610904578063f2fde38b1461095b578063f6dc20241461099e578063fbb789fa146109cb578063fc7a60bb14610a0e575b600080600e60009054906101000a900460ff16151561017257600080fd5b6402540be400341015151561018657600080fd5b670de0b6b3a76400006305f5e1006007543402028115156101a357fe5b04915081600d54101515156101b757600080fd5b34905080600860003373ffffffffffffffffffffffffffffffffffffffff1673ffffffffffffffffffffffffffffffffffffffff168152602001908152602001600020600082825401925050819055508060016000828254019250508190555081600960003373ffffffffffffffffffffffffffffffffffffffff1673ffffffffffffffffffffffffffffffffffffffff1681526020019081526020016000206000828254019250508190555081600d600082825403925050819055506000600a60003373ffffffffffffffffffffffffffffffffffffffff1673ffffffffffffffffffffffffffffffffffffffff16815260200190815260200160002054141561030857603c600354024201600a60003373ffffffffffffffffffffffffffffffffffffffff1673ffffffffffffffffffffffffffffffffffffffff168152602001908152602001600020819055505b7f4c26125b41cd5484e373d26a702816e78e8f75ae1bb9d83a0ee16a78a8e8e0e933826007548542600a60003373ffffffffffffffffffffffffffffffffffffffff1673ffffffffffffffffffffffffffffffffffffffff168152602001908152602001600020546001604051808873ffffffffffffffffffffffffffffffffffffffff1673ffffffffffffffffffffffffffffffffffffffff1681526020018781526020018681526020018581526020018481526020018381526020018215151515815260200197505050505050505060405180910390a1600b3390806001815401808255809150509060018203906000526020600020016000909192909190916101000a81548173ffffffffffffffffffffffffffffffffffffffff021916908373ffffffffffffffffffffffffffffffffffffffff160217905550505050005b34801561045757600080fd5b50610460610a65565b6040518082815260200191505060405180910390f35b34801561048257600080fd5b506104a160048036038101908080359060200190929190505050610a6b565b005b3480156104af57600080fd5b506104b8610b66565b604051808273ffffffffffffffffffffffffffffffffffffffff1673ffffffffffffffffffffffffffffffffffffffff16815260200191505060405180910390f35b34801561050657600080fd5b5061050f610b8b565b6040518082815260200191505060405180910390f35b34801561053157600080fd5b5061053a610b91565b6040518082815260200191505060405180910390f35b34801561055c57600080fd5b5061057b60048036038101908080359060200190929190505050610b97565b005b34801561058957600080fd5b50610592610e13565b604051808273ffffffffffffffffffffffffffffffffffffffff1673ffffffffffffffffffffffffffffffffffffffff16815260200191505060405180910390f35b3480156105e057600080fd5b50610615600480360381019080803573ffffffffffffffffffffffffffffffffffffffff169060200190929190505050610e39565b6040518082815260200191505060405180910390f35b34801561063757600080fd5b50610640610e51565b6040518082815260200191505060405180910390f35b34801561066257600080fd5b5061066b610e57565b6040518082815260200191505060405180910390f35b34801561068d57600080fd5b50610696610e5d565b604051808273ffffffffffffffffffffffffffffffffffffffff1673ffffffffffffffffffffffffffffffffffffffff16815260200191505060405180910390f35b3480156106e457600080fd5b5061070360048036038101908080359060200190929190505050610e83565b005b34801561071157600080fd5b5061071a6110af565b6040518082815260200191505060405180910390f35b34801561073c57600080fd5b506107456110b5565b6040518082815260200191505060405180910390f35b34801561076757600080fd5b5061079c600480360381019080803573ffffffffffffffffffffffffffffffffffffffff1690602001909291905050506110bb565b005b3480156107aa57600080fd5b506107b36111b6565b604051808215151515815260200191505060405180910390f35b3480156107d957600080fd5b506107f8600480360381019080803590602001909291905050506111c9565b604051808273ffffffffffffffffffffffffffffffffffffffff1673ffffffffffffffffffffffffffffffffffffffff16815260200191505060405180910390f35b34801561084657600080fd5b5061086560048036038101908080359060200190929190505050611207565b005b34801561087357600080fd5b5061089260048036038101908080359060200190929190505050611305565b005b3480156108a057600080fd5b506108bf600480360381019080803590602001909291905050506113e7565b005b3480156108cd57600080fd5b50610902600480360381019080803573ffffffffffffffffffffffffffffffffffffffff1690602001909291905050506115c0565b005b34801561091057600080fd5b50610945600480360381019080803573ffffffffffffffffffffffffffffffffffffffff1690602001909291905050506119b9565b6040518082815260200191505060405180910390f35b34801561096757600080fd5b5061099c600480360381019080803573ffffffffffffffffffffffffffffffffffffffff1690602001909291905050506119d1565b005b3480156109aa57600080fd5b506109c960048036038101908080359060200190929190505050611af4565b005b3480156109d757600080fd5b50610a0c600480360381019080803573ffffffffffffffffffffffffffffffffffffffff169060200190929190505050611bef565b005b348015610a1a57600080fd5b50610a4f600480360381019080803573ffffffffffffffffffffffffffffffffffffffff169060200190929190505050611cea565b6040518082815260200191505060405180910390f35b60035481565b600c60009054906101000a900473ffffffffffffffffffffffffffffffffffffffff1673ffffffffffffffffffffffffffffffffffffffff163373ffffffffffffffffffffffffffffffffffffffff161480610b1357506000809054906101000a900473ffffffffffffffffffffffffffffffffffffffff1673ffffffffffffffffffffffffffffffffffffffff163373ffffffffffffffffffffffffffffffffffffffff16145b1515610b1e57600080fd5b603c810242016004819055507f57f8f7c54e908b3f230e4302fce4a19096f7c9f6ff30f6871e40f514371199a46004546040518082815260200191505060405180910390a150565b6000809054906101000a900473ffffffffffffffffffffffffffffffffffffffff1681565b60075481565b600d5481565b600c60009054906101000a900473ffffffffffffffffffffffffffffffffffffffff1673ffffffffffffffffffffffffffffffffffffffff163373ffffffffffffffffffffffffffffffffffffffff161480610c3f57506000809054906101000a900473ffffffffffffffffffffffffffffffffffffffff1673ffffffffffffffffffffffffffffffffffffffff163373ffffffffffffffffffffffffffffffffffffffff16145b1515610c4a57600080fd5b80600f81905550600660009054906101000a900473ffffffffffffffffffffffffffffffffffffffff1673ffffffffffffffffffffffffffffffffffffffff1663a9059cbb6000809054906101000a900473ffffffffffffffffffffffffffffffffffffffff16600d546040518363ffffffff167c0100000000000000000000000000000000000000000000000000000000028152600401808373ffffffffffffffffffffffffffffffffffffffff1673ffffffffffffffffffffffffffffffffffffffff16815260200182815260200192505050602060405180830381600087803b158015610d3957600080fd5b505af1158015610d4d573d6000803e3d6000fd5b505050506040513d6020811015610d6357600080fd5b810190808051906020019092919050505015610e10577f896e034966eaaf1adc54acc0f257056febbd300c9e47182cf761982cf1f5e4306000809054906101000a900473ffffffffffffffffffffffffffffffffffffffff16600d54604051808373ffffffffffffffffffffffffffffffffffffffff1673ffffffffffffffffffffffffffffffffffffffff1681526020018281526020019250505060405180910390a16000600d819055505b50565b600660009054906101000a900473ffffffffffffffffffffffffffffffffffffffff1681565b60086020528060005260406000206000915090505481565b60055481565b60015481565b600c60009054906101000a900473ffffffffffffffffffffffffffffffffffffffff1681565b600c60009054906101000a900473ffffffffffffffffffffffffffffffffffffffff1673ffffffffffffffffffffffffffffffffffffffff163373ffffffffffffffffffffffffffffffffffffffff161480610f2b57506000809054906101000a900473ffffffffffffffffffffffffffffffffffffffff1673ffffffffffffffffffffffffffffffffffffffff163373ffffffffffffffffffffffffffffffffffffffff16145b1515610f3657600080fd5b80600f81905550600660009054906101000a900473ffffffffffffffffffffffffffffffffffffffff1673ffffffffffffffffffffffffffffffffffffffff166370a08231306040518263ffffffff167c0100000000000000000000000000000000000000000000000000000000028152600401808273ffffffffffffffffffffffffffffffffffffffff1673ffffffffffffffffffffffffffffffffffffffff168152602001915050602060405180830381600087803b158015610ffa57600080fd5b505af115801561100e573d6000803e3d6000fd5b505050506040513d602081101561102457600080fd5b8101908080519060200190929190505050600d819055506000600d5411156110ac576001600e60006101000a81548160ff0219169083151502179055507f983bc0cfa798c8bebdb8f3827031ff57f173d68da4449941840ba305306c5c1d600e60009054906101000a900460ff16604051808215151515815260200191505060405180910390a15b50565b60045481565b60025481565b600c60009054906101000a900473ffffffffffffffffffffffffffffffffffffffff1673ffffffffffffffffffffffffffffffffffffffff163373ffffffffffffffffffffffffffffffffffffffff16148061116357506000809054906101000a900473ffffffffffffffffffffffffffffffffffffffff1673ffffffffffffffffffffffffffffffffffffffff163373ffffffffffffffffffffffffffffffffffffffff16145b151561116e57600080fd5b6000600a60008373ffffffffffffffffffffffffffffffffffffffff1673ffffffffffffffffffffffffffffffffffffffff1681526020019081526020016000208190555050565b600e60009054906101000a900460ff1681565b600b818154811015156111d857fe5b906000526020600020016000915054906101000a900473ffffffffffffffffffffffffffffffffffffffff1681565b600c60009054906101000a900473ffffffffffffffffffffffffffffffffffffffff1673ffffffffffffffffffffffffffffffffffffffff163373ffffffffffffffffffffffffffffffffffffffff1614806112af57506000809054906101000a900473ffffffffffffffffffffffffffffffffffffffff1673ffffffffffffffffffffffffffffffffffffffff163373ffffffffffffffffffffffffffffffffffffffff16145b15156112ba57600080fd5b7f8127cc1e4f66277641a2c7c1a457e5f3625f5f6bdc873c21b78494973f4018ec60075482604051808381526020018281526020019250505060405180910390a18060078190555050565b600c60009054906101000a900473ffffffffffffffffffffffffffffffffffffffff1673ffffffffffffffffffffffffffffffffffffffff163373ffffffffffffffffffffffffffffffffffffffff1614806113ad57506000809054906101000a900473ffffffffffffffffffffffffffffffffffffffff1673ffffffffffffffffffffffffffffffffffffffff163373ffffffffffffffffffffffffffffffffffffffff16145b15156113b857600080fd5b60008114806113c75750600181145b806113d25750600281145b15156113dd57600080fd5b8060058190555050565b600c60009054906101000a900473ffffffffffffffffffffffffffffffffffffffff1673ffffffffffffffffffffffffffffffffffffffff163373ffffffffffffffffffffffffffffffffffffffff16148061148f57506000809054906101000a900473ffffffffffffffffffffffffffffffffffffffff1673ffffffffffffffffffffffffffffffffffffffff163373ffffffffffffffffffffffffffffffffffffffff16145b151561149a57600080fd5b80600f819055506000809054906101000a900473ffffffffffffffffffffffffffffffffffffffff1673ffffffffffffffffffffffffffffffffffffffff166108fc6001549081150290604051600060405180830381858888f19350505050156115bd577f4c26125b41cd5484e373d26a702816e78e8f75ae1bb9d83a0ee16a78a8e8e0e96000809054906101000a900473ffffffffffffffffffffffffffffffffffffffff16600154600754600042600080604051808873ffffffffffffffffffffffffffffffffffffffff1673ffffffffffffffffffffffffffffffffffffffff1681526020018781526020018681526020018581526020018481526020018381526020018215151515815260200197505050505050505060405180910390a15b50565b600c60009054906101000a900473ffffffffffffffffffffffffffffffffffffffff1673ffffffffffffffffffffffffffffffffffffffff163373ffffffffffffffffffffffffffffffffffffffff16148061166857506000809054906101000a900473ffffffffffffffffffffffffffffffffffffffff1673ffffffffffffffffffffffffffffffffffffffff163373ffffffffffffffffffffffffffffffffffffffff16145b151561167357600080fd5b6000600960008373ffffffffffffffffffffffffffffffffffffffff1673ffffffffffffffffffffffffffffffffffffffff168152602001908152602001600020541115156116c157600080fd5b6000600554141561171f57600a60008273ffffffffffffffffffffffffffffffffffffffff1673ffffffffffffffffffffffffffffffffffffffff16815260200190815260200160002054421015151561171a57600080fd5b61173d565b6001600554141561173c57600454421015151561173b57600080fd5b5b5b600660009054906101000a900473ffffffffffffffffffffffffffffffffffffffff1673ffffffffffffffffffffffffffffffffffffffff1663a9059cbb82600960008573ffffffffffffffffffffffffffffffffffffffff1673ffffffffffffffffffffffffffffffffffffffff168152602001908152602001600020546040518363ffffffff167c0100000000000000000000000000000000000000000000000000000000028152600401808373ffffffffffffffffffffffffffffffffffffffff1673ffffffffffffffffffffffffffffffffffffffff16815260200182815260200192505050602060405180830381600087803b15801561184157600080fd5b505af1158015611855573d6000803e3d6000fd5b505050506040513d602081101561186b57600080fd5b8101908080519060200190929190505050156119b6577f896e034966eaaf1adc54acc0f257056febbd300c9e47182cf761982cf1f5e43081600960008473ffffffffffffffffffffffffffffffffffffffff1673ffffffffffffffffffffffffffffffffffffffff16815260200190815260200160002054604051808373ffffffffffffffffffffffffffffffffffffffff1673ffffffffffffffffffffffffffffffffffffffff1681526020018281526020019250505060405180910390a16000600960008373ffffffffffffffffffffffffffffffffffffffff1673ffffffffffffffffffffffffffffffffffffffff168152602001908152602001600020819055506000600860008373ffffffffffffffffffffffffffffffffffffffff1673ffffffffffffffffffffffffffffffffffffffff168152602001908152602001600020819055505b50565b60096020528060005260406000206000915090505481565b600c60009054906101000a900473ffffffffffffffffffffffffffffffffffffffff1673ffffffffffffffffffffffffffffffffffffffff163373ffffffffffffffffffffffffffffffffffffffff161480611a7957506000809054906101000a900473ffffffffffffffffffffffffffffffffffffffff1673ffffffffffffffffffffffffffffffffffffffff163373ffffffffffffffffffffffffffffffffffffffff16145b1515611a8457600080fd5b80600c60006101000a81548173ffffffffffffffffffffffffffffffffffffffff021916908373ffffffffffffffffffffffffffffffffffffffff1602179055507f47ebf46624611c52aa026572cea28d0fe944ec8e12a6aaaf9a34159718ff071060405160405180910390a150565b600c60009054906101000a900473ffffffffffffffffffffffffffffffffffffffff1673ffffffffffffffffffffffffffffffffffffffff163373ffffffffffffffffffffffffffffffffffffffff161480611b9c57506000809054906101000a900473ffffffffffffffffffffffffffffffffffffffff1673ffffffffffffffffffffffffffffffffffffffff163373ffffffffffffffffffffffffffffffffffffffff16145b1515611ba757600080fd5b603c810242016003819055507fe5ddd5b0c0a0b1c781be1c114fda5f2bda09b0e7a562839b8ec631278999b78a6003546040518082815260200191505060405180910390a150565b600c60009054906101000a900473ffffffffffffffffffffffffffffffffffffffff1673ffffffffffffffffffffffffffffffffffffffff163373ffffffffffffffffffffffffffffffffffffffff161480611c9757506000809054906101000a900473ffffffffffffffffffffffffffffffffffffffff1673ffffffffffffffffffffffffffffffffffffffff163373ffffffffffffffffffffffffffffffffffffffff16145b1515611ca257600080fd5b6001600a60008373ffffffffffffffffffffffffffffffffffffffff1673ffffffffffffffffffffffffffffffffffffffff1681526020019081526020016000208190555050565b600a60205280600052604060002060009150905054815600a165627a7a7230582092898589b09091f0760d764c613e4befca299d6633f38c1cfe6ce6cb03d2bddb0029",
  "source": "pragma solidity ^0.4.24;\n\ninterface token {\n    function transfer(address receiver, uint amount) external returns (bool);\n    function balanceOf(address tokenOwner) external returns (uint);\n}\n\ncontract CoconSale {\n    address public beneficiary;\n    uint public amountRaised;\n    uint public price;\n    uint public dynamicLocktime; // tokens are locked for this number of minutes since purchase\n    uint public globalLocktime;\n    /*\n    * 0 - locktime depends on time of token purchase\n    * 1 - same locktime for all investers\n    * 2 - no locktimes\n    */\n    uint public lockType = 0;\n    token public tokenReward;\n    uint public exchangeRate;\n\n    mapping(address => uint256) public balanceOf;\n    mapping(address => uint256) public tokenBalanceOf;\n    mapping(address => uint256) public timelocksOf;\n\n    address[] public founders;\n    address public owner;\n\n    event FundTransfer(address backer, uint amount, uint exchangeRate, uint token, uint time, uint timelock, bool isContribution);\n    event IsCharged(bool isCharged);\n    event TokensClaimed(address founder, uint tokens);\n    event TransferOwnership();\n    event ChangeExchangeRate(uint oldExchangeRate, uint newExchangeRate);\n    event NewGlobalLocktime(uint timelockUntil);\n    event NewDynamicLocktime(uint timelockUntil);\n    uint public tokenAvailable = 0;\n    bool public charged = false;\n    uint lastActionId = 0;\n\n\n    /**\n     * Constructor function\n     *\n     * Setup the owner\n     */\n    constructor(\n        address _beneficiary,\n        address _addressOfTokenUsedAsReward,\n        uint _globalLocktime,\n        uint _dynamicLocktime,\n        uint _exchangeRate\n    ) public {\n        beneficiary = _beneficiary;\n        dynamicLocktime = _dynamicLocktime;//now + dynamicTimeLockInMinutes * 1 minutes;\n        tokenReward = token(_addressOfTokenUsedAsReward);\n        globalLocktime = now + _globalLocktime * 1 minutes;\n        exchangeRate = _exchangeRate;\n        owner = msg.sender;\n    }\n\n    /**\n     * Fallback function\n     *\n     * The function without name is the default function that is called whenever anyone sends funds to a contract\n     */\n    function () payable public {\n          require(charged);\n          require(msg.value >= 10000000000); // min allowed pay since token has only 8 decimals\n          uint am = (msg.value* exchangeRate * 100000000)/(1 ether); // 8 decimals for cocon token\n          require( tokenAvailable >= am);\n          uint amount = msg.value;\n          balanceOf[msg.sender] += amount;\n          amountRaised += amount;\n          tokenBalanceOf[msg.sender] += am;\n          tokenAvailable -= am;\n\n          if(timelocksOf[msg.sender] == 0){\n            timelocksOf[msg.sender] = now + dynamicLocktime * 1 minutes;\n          }\n\n          emit FundTransfer(msg.sender, amount, exchangeRate, am, now, timelocksOf[msg.sender], true);\n          founders.push(msg.sender);\n    }\n\n    // modifier onlyOwner\n    modifier onlyOwner(){\n      require(msg.sender == owner || msg.sender == beneficiary);\n      _;\n    }\n\n    // function to charge the crowdsale\n    function doChargeCrowdsale(uint act) public onlyOwner{\n      lastActionId = act;\n      tokenAvailable = tokenReward.balanceOf(address(this));\n      if(tokenAvailable > 0){\n        charged = true;\n        emit IsCharged(charged);\n      }\n    }\n\n    /*\n      Function that allows to claim tokens after timelock has expired\n    */\n    function claimTokens(address adr) public onlyOwner{\n      require(tokenBalanceOf[adr] > 0);\n\n      if(lockType == 0){ // lock by address\n        require(now >= timelocksOf[adr]);\n      }else if(lockType == 1){ // global lock\n        require(now >= globalLocktime);\n      } // else there is no lock\n\n      if(tokenReward.transfer(adr, tokenBalanceOf[adr])){\n        emit TokensClaimed(adr, tokenBalanceOf[adr]);\n        tokenBalanceOf[adr] = 0;\n        balanceOf[adr] = 0;\n      }\n    }\n\n    //  Allows owner to transfer raised amount\n    function transferRaisedFunds(uint act) public onlyOwner {\n        lastActionId = act;\n        if (beneficiary.send(amountRaised)) {\n           emit FundTransfer(beneficiary, amountRaised, exchangeRate, 0, now, 0, false);\n        }\n    }\n\n    // to transfer ownership of the contract\n    function transferOwnership(address newOwner) public onlyOwner{\n      owner = newOwner;\n      emit TransferOwnership();\n    }\n\n    // changing exchangeRate\n    function setExchangeRate(uint newExchangeRate) public onlyOwner{\n      emit ChangeExchangeRate(exchangeRate, newExchangeRate);\n      exchangeRate = newExchangeRate;\n    }\n\n    // set new globalLocktime\n    function setGlobalLocktime(uint mins) public onlyOwner{\n      globalLocktime = now + mins * 1 minutes;\n      emit NewGlobalLocktime(globalLocktime);\n    }\n\n    // set new dynamicLocktime\n    function setDynamicLocktime(uint mins) public onlyOwner{\n      dynamicLocktime = now + mins * 1 minutes;\n      emit NewDynamicLocktime(dynamicLocktime);\n    }\n\n    // setting new locktype\n    function setLockType(uint newType) public onlyOwner{\n        require(newType == 0 || newType == 1 || newType == 2);\n        lockType = newType;\n    }\n\n    // unlock tokens for address makes tokens unlockable even for the future token purchases\n    function unlockTokensFor(address adr) public onlyOwner{\n      timelocksOf[adr] = 1;\n    }\n\n    // reset lock for address makes tokens lockable for address again\n    function resetLockFor(address adr) public onlyOwner{\n      timelocksOf[adr] = 0;\n    }\n\n    // get all tokens that were left from token sale\n    function getLeftOver(uint act) public onlyOwner{\n      lastActionId = act;\n      if(tokenReward.transfer(beneficiary, tokenAvailable)){\n        emit TokensClaimed(beneficiary, tokenAvailable);\n        tokenAvailable = 0;\n      }\n    }\n}\n\n",
  "sourcePath": "/home/mman/test/projects/coco/contracts/CoconSale.sol",
  "compiler": {
    "name": "solc",
    "version": "0.4.24+commit.e67f0147.Emscripten.clang"
  },
  "schemaVersion": "3.0.0",
  "updatedAt": "2018-12-24T06:30:26.605Z",
  "devdoc": {
    "methods": {}
  },
  "userdoc": {
    "methods": {}
  }
}